S015000044656275675C73746D38733230372E736D38C9
S1238080000000640000010000000020000000100000006400000001000000020F030010BE
S12380A0FF0810FF1711FF1F18FF1F12FFF810FF1011FFA018FFA012FF000F0301C0800037
S12380C00F030017C0801EC0000EFFFF86FFC91608081D08082B070731FF2C34FFE1350CBE
S12380E001540C116AFF8174FFA0501F12650C087A8080850202C0030087FFA17108003776
S1238100FF884DFF886780007A70707780800F0301C080800F03007E404052202053C04080
S123812058FF330F0301BCFF060F030022FF3826FF803AFF383EFF80204040384040FFFF49
S1238140FF0AFF0008FF0009FF0052FF0053FF8032FF0C81FF2082FF3183FF7884FF568BF4
S1238160FF688CFF022801000F2020298080398080008F04018C840C898836FCB43820002E
S12381805CFCD46603012A01010F1000FFFFFF0100000000000000000000000000000001FB
S12381A00100000000000000000000000000000101010101010101010101010101000000AC
S12381C000000000000000000000000000000001010101010101010101010101000000018D
S12381E0010101010101010100000000000000000101010101010101010101010000000166
S1238200010000000000000000000000000000010101010101010101000000000000000050
S1238220010101010100000000000000000100008010B2046502E900933C1804553F493D99
S12382409F3E180410801009040E02C9000F3D84036D3FAB3DD13E8403008010B805B4019C
S123826094004A3C17049F3FD93C103F1704108010EA0477017F00D03C8303AD3F4B3D32AB
S12382803F830300000000086B3A503D0008F50A02000008FD3FDA0D0400A74F098139DD0D
S12382A03C4F09C40C01004F09FD3F1F100000000008553C883E0008510C000000080000C6
S12382C0840E0400A74F09BA3B4B3E4F09570E02004F09FE3FE81000FFFFFFFFFFFF00261B
S12382E08502680101010121170103805530782A63BDA154529E260C474A2008008180D1E2
S1238300C001010101010101010101010104740030F2705A80B0588A00A20B3200001E0119
S12383201D007251D01E206E285500C48E2100001E000000FD00184C1E531E000A20202075
S1238340202020000000FC00495445363830320A2020202020018B020325F14384100323BD
S123836009070783010000E2000FE30503016D030C001000383C200060030201011D00726B
S123838051D01E206E285500A05A0000001E8C0AD08A20E02D10103E9600A05A0000001854
S12383A0F339801871382D40582C4500E00E1100001E0000000000000000000000000000F9
S12383C0000000000000000000000000000000000000000000001520202020202020204242
S12383E06C616E6B696E67436F6C6F722020202020202020202020203D202564200D0A00F9
S123840020202020202020205269676874456E636F6465644C696E654C6F636174696F6EE7
S1238420203D202564200D0A0020202020202020204C656674456E636F6465644C696E6536
S12384404C6F636174696F6E20203D202564200D0A0020202020202020204E756D62657219
S12384604F66456E636F6465644C696E657320202020203D202564200D0A00202020202039
S12384802020204E756D416374697665426C616E6B4C696E65732020202020203D20256463
S12384A0200D0A0020202020202020204F455F5265666572656E63652020202020202020FF
S12384C020202020203D202564200D0A00202020202020202054425F5265666572656E63BC
S12384E065202020202020202020202020203D202564200D0A0020202020202020204C52B8
S12385005F456E636F64696E6720202020202020202020202020203D202564200D0A0020D4
S1238520202020202020204672616D65446F6D696E616E636520202020202020202020207E
S12385403D202564200D0A0020202020202020204C525F5265666572656E636520202020EE
S12385602020202020202020203D202564200D0A002020202020202020466F726D61742031
S12385802020202020202020202020202020202020203D202564200D0A000D0A4954363858
S12385A03078202D2048444D495F33445F536F75726365436F6E66696775726174696F6E82
S12385C03A200D0A00495436383078202D2048444D495F3344464F524D41542069732053D6
S12385E04944455F42595F53494445200D0A00495436383078202D2048444D495F33444692
S12386004F524D415420697320544F505F414E445F424F54544F4D200D0A004954363830EC
S123862078202D2048444D495F3344464F524D4154206973204652414D455F5041434B4942
S12386404E47200D0A0020202020202020205265636F72642048444D492076656E64657205
S123866020737065636966696320696E666F726672616D6520504237203D203078253032B2
S12386806258200D0A0020202020202020205265636F72642048444D492076656E646572A0
S12386A020737065636966696320696E666F726672616D6520504236203D20307825303273
S12386C06258200D0A0020202020202020205265636F72642048444D492076656E64657260
S12386E020737065636966696320696E666F726672616D6520504235203D20307825303234
S12387006258200D0A0020202020202020205265636F72642048444D492076656E6465721F
S123872020737065636966696320696E666F726672616D6520504234203D203078253032F4
S12387406258200D0A0020202020202020205265636F72642048444D492076656E646572DF
S123876020737065636966696320696E666F726672616D6520504233203D203078253032B5
S12387806258200D0A0020202020202020205265636F72642048444D492076656E6465729F
S12387A020737065636966696320696E666F726672616D6520504232203D20307825303276
S12387C06258200D0A0020202020202020205265636F72642048444D492076656E6465725F
S12387E020737065636966696320696E666F726672616D6520504231203D20307825303237
S12388006258200D0A0020202020202020205265636F72642048444D492076656E6465721E
S123882020737065636966696320696E666F726672616D6520504230203D203078253032F7
S12388406258200D0A0020202020202020205265636F72642048444D492076656E646572DE
S123886020737065636966696320696E666F726672616D6520484232203D203078253032BD
S12388806258200D0A0020202020202020205265636F72642048444D492076656E6465729E
S12388A020737065636966696320696E666F726672616D6520484231203D2030782530327E
S12388C06258200D0A0020202020202020205265636F72642048444D492076656E6465725E
S12388E020737065636966696320696E666F726672616D6520484230203D2030782530323F
S12389006258200D0A00202020202020202048444D4920564943203D2030782530326258D8
S1238920200D0A000D0A495436353378202D2048444D495F44756D70444533444672616D28
S123894065496E666F3A200D0A002052656742413D2578200D0A002052656742393D25784C
S1238960200D0A002052656742353D2578200D0A002052656742343D2578200D0A00485396
S1238980796E63506F6C203D204E656761746976650D0A004853796E63506F6C203D2050BA
S12389A06F7369746976650D0A005653796E63506F6C203D204E656761746976650D0A00B4
S12389C05653796E63506F6C203D20506F7369746976650D0A005363616E4D6F6465203D27
S12389E020496E7465724C616365640D0A005363616E4D6F6465203D2050726F67726573F8
S1238A00736976650D0A00564261636B506F726368203D2025640D0A005653796E635769F1
S1238A20647468203D2025640D0A005646726F6E74506F726368203D2025640D0A004842D3
S1238A4061636B506F726368203D2025640D0A004853796E635769647468203D2025640DD2
S1238A600A004846726F6E74506F726368203D2025640D0A0056546F74616C203D2025641E
S1238A800D0A0048546F74616C203D2025640D0A0056416374697665203D2025640D0A0083
S1238AA048416374697665203D2025640D0A00425553204D4F4445203A2048444D49204DB9
S1238AC06F64650D0A00425553204D4F4445203A204D484C2032342062697473204D6F6421
S1238AE0650D0A00425553204D4F4445203A204D484C205061636B506978656C204D6F648B
S1238B00650D0A004F757470757420436F6C6F72204D6F6465203D205265736572766564C3
S1238B20202121210D0A004F757470757420436F6C6F72204D6F6465203D20594362437212
S1238B403434340D0A004F757470757420436F6C6F72204D6F6465203D20594362437234A5
S1238B6032320D0A004F757470757420436F6C6F72204D6F6465203D205247423434340D20
S1238B800A00496E70757420436F6C6F72204D6F6465203D205265736572766564202121D4
S1238BA0210D0A00496E70757420436F6C6F72204D6F6465203D2059436243723434340DCC
S1238BC00A00496E70757420436F6C6F72204D6F6465203D2059436243723432320D0A00D4
S1238BE0496E70757420436F6C6F72204D6F6465203D205247423434340D0A004F757470EA
S1238C00757420436F6C6F724465707468203D203234206269747320706572207069786561
S1238C206C0D0A004F757470757420436F6C6F724465707468203D20333620626974732030
S1238C4070657220706978656C0D0A004F757470757420436F6C6F724465707468203D204E
S1238C60333020626974732070657220706978656C0D0A000D0A496E70757420436F6C6F27
S1238C80724465707468203D20323420626974732070657220706978656C0D0A000D0A4994
S1238CA06E70757420436F6C6F724465707468203D203336206269747320706572207069BD
S1238CC078656C0D0A000D0A496E70757420436F6C6F724465707468203D2033302062692A
S1238CE074732070657220706978656C0D0A0034343434343434342052656742413D25788E
S1238D00200D0A0033333333333333332052656742393D2578200D0A003232323232323258
S1238D20322052656742353D2578200D0A0031313131313131312052656742343D25782001
S1238D400D0A002050315F5265635F525F43533D2530326258202050315F5265635F525F70
S1238D6052533D253032625820200D0A002050315F5265635F475F43533D25303262582022
S1238D802050315F5265635F475F52533D253032625820200D0A002050315F5265635F427B
S1238DA05F43533D2530326258202050315F5265635F425F52533D253032625820200D0A88
S1238DC0002323232320506F7274203120455120646F6E6520696E74657272757074202321
S1238DE02323230D0A002050305F5265635F525F43533D2530326258202050305F52656379
S1238E005F525F52533D253032625820200D0A002050305F5265635F475F43533D2530324C
S1238E206258202050305F5265635F475F52533D253032625820200D0A002050305F526506
S1238E40635F425F43533D2530326258202050305F5265635F425F52533D2530326258201B
S1238E60200D0A002323232320506F7274203020455120646F6E6520696E74657272757001
S1238E807420232323230D0A0023232323204E65772041564920496E666F4672616D65200A
S1238EA0526563656976656420232323230D0A0023232323204E6577204D50454720496ECE
S1238EC0666F4672616D6520526563656976656420232323230D0A0023232323204E6577EE
S1238EE020535044205061636B657420526563656976656420232323230D0A002323232359
S1238F00204E657720414350205061636B657420526563656976656420232323230D0A008D
S1238F2023232323204E657720417564696F205061636B6574205265636569766564202343
S1238F402323230D0A002323232320506F72742030204465736B6577204572726F722023FC
S1238F602323230D0A002323232320506F72742031204465736B6577204572726F722023DB
S1238F802323230D0A0023232323204832562042756666657220536B6577204661696C20E1
S1238FA0232323230D0A00232323232049535243312044657465637420232323230D0A00C0
S1238FC0232323232049535243322044657465637420232323230D0A00232323232033441F
S1238FE020496E666F4672616D652044657465637420232323230D0A002323232320434467
S12390002044657465637420232323230D0A0023232323204E6F2041564920496E666F46B5
S123902072616D6520526563656976656420232323230D0A0023232323204E6F20417564DA
S1239040696F20496E666F4672616D6520526563656976656420232323230D0A002323232A
S12390602320506F7274203020427573204D6F6465203A2048444D4920232323230D0A0066
S12390802323232320506F7274203020427573204D6F6465203A204D484C20232323230D28
S12390A00A002323232320566964656F204D6F6465204368616E67656420232323230D0ACD
S12390C0002323232320536574204D757465205061636B65742052656365697665642023F7
S12390E02323230D0A0023232323205061636B6574204C656674204D7574652023232323D6
S12391000D0A002323232320417564696F204175746F204D75746520232323230D0A00233C
S123912023232320417564696F204649464F204572726F7220232323230D0A0023232323F3
S123914020506F7274203120506F776572203556206368616E676520232323230D0A0023B1
S123916023232320506F7274203120527820434B4F6E2044657465637420232323230D0ADB
S1239180002323232320506F7274203120496E70757420436C6F636B204368616E67652067
S12391A044657465637420232323230D0A002323232320506F72742031204844435020414D
S12391C0757468656E7469636174696F6E20537461727420232323230D0A0023232323206F
S12391E0506F7274203120484443502041757468656E7469636174696F6E20446F6E652090
S1239200232323230D0A002323232320506F727420312048444D492F445649204D6F64650C
S1239220206368616E676520232323230D0A002323232320506F72742031204543432045EF
S123924072726F7220232323230D0A002323232320506F727420312048444350204F666666
S1239260204465746563746564202323230D0A002323232320506F7274203020506F7765AC
S123928072203556206368616E676520232323230D0A002323232320506F72742030205251
S12392A07820434B4F6E2044657465637420232323230D0A002323232320506F72742030EA
S12392C020496E70757420436C6F636B204368616E67652044657465637420232323230DB6
S12392E00A002323232320506F7274203020484443502041757468656E7469636174696F0E
S12393006E20446F6E6520232323230D0A002323232320506F727420302048444350204131
S1239320757468656E7469636174696F6E20537461727420232323230D0A0023232323200D
S1239340506F727420302048444D492F445649204D6F6465206368616E67652023232323E9
S12393600D0A002323232320506F7274203020454343204572726F7220232323230D0A0059
S12393802323232320506F727420302048444350204F666620446574656374656420232306
S12393A0230D0A004954363830322D4D484C2045444944204368616E676520496E74657236
S12393C072757074202E2E2E0D0A003344205265717565737420496E746572727570742070
S12393E02E2E2E0D0A002023232320334420556E2D537570706F72742057726974655F42CF
S12394007572737420456E64202323230D0A002023232320334420737570706F72707420B6
S123942057726974655F427572737420456E64202323230D0A004D484C20474E545F5752E5
S12394405420496E74657272757074202854785365714E756D3D256429202E2E2E0D0A00AA
S12394604954363830322D5B2A2A5D4D484C20474E545F57525420496E746572727570740F
S123948020202E2E2E0D0A004954363830322D536574204752545F57525420746F20312044
S12394A0202E2E2E0D0A004954363830322D4D484C205245515F57525420496E7465727274
S12394C075707420202E2E2E0D0A004552524F523A2041646F70746572204944204D6973A5
S12394E06D61746368202121210D0A0041646F70746572204944203D203078253032582021
S1239500253032580D0A004552524F523A20526563656976652053637261746368205061F1
S1239520642044617461203E203136206279746573202121210D0A0052582053637261749C
S1239540636820506164205B253032645D203D203078253032580D0A004954363830322D8F
S12395604D484C20445343525F43484720496E74657272757074202E2E2E2E2E2E0D0A0051
S12395804954363830322D4D484C20446576696365204361706162696C697479206973209E
S12395A07374696C6C206E6F7420526561647920212121200D0A004954363830322D4D4810
S12395C04C20446576696365204361706162696C697479204368616E676520496E74657221
S12395E072757074202E2E2E0D0A004954363830322D43757272656E74205642555320538B
S12396007461747573203D2025580D0A004954363830322D56425553205374617475732066
S12396204368616E676520496E74657272757074202E2E2E0D0A004954363830322D444311
S12396406170526479204368616E67652066726F6D2027312720746F202730270D0A00492C
S123966054363830322D53657420444341505F52445920746F2031202E2E2E0D0A00495431
S1239680363830322D434255532044436170526479204368616E676520496E746572727586
S12396A07074202E2E2E0D0A006974363830322D43757272656E742043425553204D5554E1
S12396C04520537461747573203D202558200D0A006974363830322D43425553204D55544F
S12396E045204368616E676520496E74657272757074202E2E2E0D0A004954363830322D73
S12397004342555320504154485F454E204368616E676520496E74657272757074202E2E0A
S12397202E0D0A0053657420504154485F454E20746F2031202E2E2E0D0A005365742048CC
S1239740504420746F2031202E2E2E0D0A0053657420444341505F52445920746F20312036
S12397602E2E2E0D0A004342555320446973636F7665727920446F6E6520496E7465727205
S1239780757074202E2E2E0D0A006974363830322D4342555320446973636F7665727920AC
S12397A0446F6E6520496E74657272757074202E2E2E0D0A0057616B655570204661696C88
S12397C020496E746572727570740D0A004954363830322D44444320527064204661696C3A
S12397E020496E74657272757074202E2E2E0D0A004954363830322D4444432052706420EC
S1239800446F6E6520496E74657272757074202E2E2E0D0A004954363830322D444443208B
S1239820526571204661696C20496E746572727570742028486172647761726529202E2E58
S12398402E200D0A004D484C20436C6F636B204D6F6465203A2032342062697473204D6F7F
S12398606465202E2E2E0D0A004D484C20436C6F636B204D6F6465203A205061636B506916
S123988078656C204D6F6465202E2E2E0D0A004954363830322D4552524F523A205265637D
S12398A0656976652041424F5254205061636B6574202121210D0A004954363830322D4572
S12398C052524F523A205265747279203E2033322074696D6573202121210D0A004954363D
S12398E03830322D4D534320527064204661696C207374617475732072656731413D25588A
S12399002072656731423D25580D0A004954363830322D4D534320527064204661696C2022
S1239920496E74657272757074202E2E2E0D0A004954363830322D4D53432052706420446E
S12399406F6E6520496E74657272757074202E2E2E0D0A004954363830322D4552524F52EF
S12399603A205458204661696C2062656361757365204657206D6F6465205278506B744668
S123998049464F206E6F7420656D707479202121210D0A004954363830322D4552524F5267
S12399A03A205458204657204661696C20696E20746865206D6964646C65206F662074686C
S12399C06520636F6D6D616E642073657175656E6365202121210D0A004954363830322D72
S12399E04D534320526571204661696C2072656731383D2025303258200D0A004954363857
S1239A0030322D4D534320526571204661696C20496E746572727570742028556E657870A7
S1239A20656374656429202E2E2E0D0A004954363830322D4D53432052657120446F6E65C8
S1239A4020496E74657272757074202E2E2E0D0A004954363830322D4D5343205258205796
S1239A60524954455F425552535420496E7465727275707420202E2E2E0D0A0049543638E6
S1239A8030322D4D53432052582057524954455F5354415420496E74657272757074202E05
S1239AA02E2E0D0A004954363830322D4D5343205258204D53435F4D534720496E7465727D
S1239AC072757074202E2E2E0D0A004954363830322D4552524F523A2043425553204C6976
S1239AE06E6B204C61796572205258205061636B6574204661696C20496E74657272757015
S1239B0074202E2E2E200D0A004954363830322D43425553204C696E6B204C61796572203A
S1239B205258205061636B657420446F6E6520496E74657272757074202E2E2E0D0A004962
S1239B4054363830322D205458205061636B6574206572726F722053746174757320726587
S1239B606731353D25580D0A004954363830322D4552524F523A2043425553204C696E6BEA
S1239B80204C61796572205458205061636B6574204661696C20496E7465727275707420B7
S1239BA02E2E2E200D0A004954363830322D43425553204C696E6B204C6179657220545882
S1239BC0205061636B657420446F6E6520496E74657272757074202E2E2E0D0A00524350D0
S1239BE05F526573756C745F46696E697368200D0A005243505F526573756C745F54726143
S1239C006E73666572200D0A005243505F526573756C745F41424F5254200D0A0052435035
S1239C205F526573756C745F4641494C200D0A005243505F526573756C745F4F4B200D0A9D
S1239C40005243504B6579506F702829206B6579203D202578200D0A0020506F7274422091
S1239C60506879416472203D2025782C2025782C2025782C2025780D0A0020506F727441A6
S1239C8020506879416472203D2025782C2025782C2025782C2025780D0A000D0A446E5350
S1239CA074726D20506879416472203D2025782C2025782C2025782C2025780D0A00454470
S1239CC049442050617273696E67204F4B0D0A0075385F565344425F41646472203D202577
S1239CE0780D0A0020426C6F636B315F436865636B53756D203D2025780D0A0020426C6FB5
S1239D00636B305F436865636B53756D203D2025780D0A00495436383032204544494452A9
S1239D20414D496E697469616C203D2025780D0A0044697361626C65454449447570646122
S1239D4074612829200D0A00456E61626C65454449447570646174612829200D0A00626C70
S1239D606F636B204E6F203D2578206F6666736574203D202578200D0A00536574204453F0
S1239D8043525F43484720746F2031202854785365714E756D3D256429202E2E2E0D0A0088
S1239DA04552524F523A205365742042757273742057726974652044617461204661696CFE
S1239DC0202121210D0A004954363830322D526561642044657669636520436170616269FF
S1239DE06C69747920456E642E2E2E0D0A004954363830322D4465764361705B25585D3D86
S1239E0025580D0A004954363830322D0D0A526561642044657669636520436170616269AD
S1239E206C697479205374617274202E2E2E0D0A00535441545F53495A45203D2025303293
S1239E4062582042797465730D0A00494E545F53495A4520203D2025303262582042797454
S1239E6065730D0A00534352415443485041445F53495A45203D202530326258204279746B
S1239E8065730D0A004445564943455F49445F483D307825303262582C204445564943456A
S1239EA05F49445F4C3D307825303262580D0A00202020205543505F524543565F5355507C
S1239EC0504F5254203D2025303262580D0A00202020205543505F53454E445F53555050CC
S1239EE04F5254203D2025303262580D0A0020202020202020202053505F535550504F5289
S1239F005420203D2025303262580D0A002020202020202020205241505F535550504F52A9
S1239F2054203D2025303262580D0A002020202020202020205243505F535550504F525453
S1239F40203D2025303262580D0A00464541545552455F464C41473A0D0A0042414E4457E6
S1239F6049445448203D2025584D487A0D0A00202020204C445F4755492020202020203D43
S1239F802025303262580D0A00202020204C445F535045414B455220203D202530326258ED
S1239FA00D0A00202020204C445F5245434F52442020203D2025303262580D0A00202020E3
S1239FC0204C445F54554E4552202020203D2025303262580D0A00202020204C445F4D45AA
S1239FE0444941202020203D2025303262580D0A00202020204C445F415544494F20202019
S123A000203D2025303262580D0A00202020204C445F564944454F202020203D202530321D
S123A02062580D0A00202020204C445F444953504C415920203D2025303262580D0A004C85
S123A0404F475F4445565F4D41503A0D0A004E6F7420537570706F727420564944454F5F56
S123A06054595045202121210D0A002020202056545F47414D4520202020203D20253032D9
S123A08062580D0A002020202056545F43494E454D412020203D2025303262580D0A002080
S123A0A020202056545F50484F544F202020203D2025303262580D0A002020202056545FEB
S123A0C04752415048494353203D2025303262580D0A00564944454F5F545950453A200DD7
S123A0E00A0020202020535550505F38434820203D2025303262580D0A002020202053554B
S123A10050505F32434820203D2025303262580D0A004155445F4C494E4B5F4D4F44453A65
S123A1200D0A0020202020535550505F5647412020202020203D2025303262580D0A00206A
S123A140202020535550505F49534C414E445320203D2025303262580D0A0020202020531E
S123A1605550505F50504958454C2020203D2025303262580D0A0020202020535550505F79
S123A1805943424352343232203D2025303262580D0A0020202020535550505F5943424393
S123A1A052343434203D2025303262580D0A0020202020535550505F5247423434342020FA
S123A1C0203D2025303262580D0A005649445F4C494E4B5F4D4F44453A0D0A0041444F503D
S123A1E05445525F49445F483D307825303262582C2041444F505445525F49445F4C3D3058
S123A2007825303262580D0A00504C494D203D2025303262580D0A00504F57203D2025309B
S123A2203262580D0A004552524F523A20526573657276656420666F7220667574757265D1
S123A240207573652021212120004445565F54595045203D20446F6E676C652C20004445BF
S123A260565F54595045203D20536F757263652C20004445565F54595045203D2053696E82
S123A2806B2C20004552524F523A204445565F54595045206174206C65617374206F6E650F
S123A2A020626974206D75737420626520736574202121210D0A004445565F545950453DA8
S123A2C0004D484C5F5645525F4D414A4F522F4D494E4F523D25303262580D0A004445564D
S123A2E05F53544154453D25303262580D0A000D0A50617273696E6720446576696365206A
S123A3004361706162696C697479205265676973746572202E2E2E0D0A00495436383032A4
S123A3202D4D53432046495245282920256C6420200D0A004552524F523A20556E6B6E6F17
S123A340776E204D53435F4D5347207375622D636F6D6D616E6420636F646520307825307D
S123A3603258202121210D0A004552524F523A20556E6B6E6F776E20524150207374617402
S123A380757320636F646520307825303258202121210D0A004552524F523A20556E737546
S123A3A070706F7274656420416374696F6E20436F6465202121210D0A004552524F523A24
S123A3C020556E7265636F676E697A656420416374696F6E20436F6465202121210D0A00B9
S123A3E05258205241504B20203D3E20004552524F523A20556E6B6E6F776E20524350208D
S123A40073746174757320636F6465202121210D0A00526573706F6E6465722042757379CA
S123A420202E2E2E0D0A004552524F523A20496E65666665637469766520524350204B6536
S123A4407920436F6465202121210D0A005258205243504B20203D3E20004552524F523AB1
S123A46020556E6B6E6F776E204D53435F4D53472073746174757320636F64652030782513
S123A480303258202121210D0A004552524F523A20496E76616C6964207375622D636F6DE3
S123A4A06D616E6420636F6465202121210D0A004E6F204572726F720D0A005258204D533B
S123A4C04745203D3E200053656E642061205241504B2077697468207374617475732063B5
S123A4E06F6465203D203078253032580D0A004552524F523A20556E6B6E6F776E2052417E
S123A5005020616374696F6E20636F646520307825303258202121210D0A004368616E676C
S123A5206520746F20434F4E54454E545F4F46462073746174650D0A004368616E6765207C
S123A540746F20434F4E54454E545F4F4E2073746174650D0A00506F6C6C0D0A0053656EB1
S123A560642061205243504520776974682073746174757320636F6465203D2030782530D3
S123A58032580D0A0053656E642061205243504B207769746820616374696F6E20636F64EB
S123A5A065203D203078253032580D0A00204B65792050726573730D0A00204B65792052CF
S123A5C0656C656173650D0A004552524F523A20526573657276656420524350207375625E
S123A5E02D636F6D6D616E6420636F6465202121210D0A0056656E646F725F537065636935
S123A600666963004635004634202859656C6C6F77290046332028477265656E29004632CF
S123A6202028526564290046312028426C7565290053656C6563745F4D656469615F467561
S123A6406E6374696F6E0054756E655F46756E6374696F6E00526573746F72655F566F6CB6
S123A660756D655F46756E6374696F6E0050617573655F5265636F72645F46756E63746966
S123A6806F6E005265636F72645F46756E6374696F6E0050617573655F506C61795F4675C8
S123A6A06E6374696F6E00506C61795F46756E6374696F6E005375627069637475726500AA
S123A6C0416E676C65004261636B7761726400466F727761726400456A6563740046617396
S123A6E07420466F727761726400526577696E64005265636F726400506175736500537460
S123A7006F7000506C6179004D75746500566F6C756D6520446F776E00566F6C756D65205D
S123A7205570005061676520446F776E00506167652055700048656C700053686F77204926
S123A7406E666F726D6174696F6E00496E7075742053656C65637400536F756E6420536547
S123A7606C6563740050726576696F7573204368616E6E656C004368616E6E656C20446F6B
S123A780776E004368616E6E656C20557000436C65617200456E74657200446F74004E7563
S123A7A06D657269632039004E756D657269632038004E756D657269632037004E756D6542
S123A7C07269632036004E756D657269632035004E756D657269632034004E756D65726922
S123A7E0632033004E756D657269632032004E756D657269632031004E756D657269632063
S123A800300045786974004661766F72697465204D656E7500436F6E74656E7473204D6555
S123A8206E75005365747570204D656E7500526F6F74204D656E75004C6566742D446F7730
S123A8406E004C6566742D55700052696768742D446F776E0052696768742D55700052699B
S123A860676874004C65667400446F776E0055700053656C656374004B6579436F64653D68
S123A8802578203D3D3E004D302020203D2030782558255825582558255825582558255875
S123A8A025582558255825582558255825582558200D0A00424B5356203D20307825582578
S123A8C05825582558255825582558255825582558200D0A00414B5356203D203078255826
S123A8E0255825582558255825582558255825582558200D0A0023232323205343445420BE
S123A9004F464620232323230D0A00232323232053434454204F4E20232323230D0A002318
S123A9202323232048444D492F445649204D6F6465203A2044564920232323230D0A00236E
S123A9402323232048444D492F445649204D6F6465203A2048444D4920232323230D0A0032
S123A96043445220726573657420666F7220506F727431204445534B45575F54494D454F9A
S123A9805554202121210D0A0043445220726573657420666F7220506F72743020444553FC
S123A9A04B45575F54494D454F5554202121210D0A0043445220726573657420666F7220E9
S123A9C0506F727431204543435F54494D454F5554202121210D0A004344522072657365EA
S123A9E07420666F7220506F727430204543435F54494D454F5554202121210D0A00232332
S123AA00232320506F776572203556204F464620232323230D0A002323232320506F77650F
S123AA2072203556204F4E20232323230D0A002B2B2B2B2B2B2B2B2B2B2B20425F43415007
S123AA405F4842525F415544494F202B2B2B2B2B2B2B2B2B2B2B2B2B2B2B2B2B0D0A004391
S123AA6061743630323320417564696F2D2D3E20417564696F20666C61673D253032582C74
S123AA804368204E6F3D253032582C46733D25303258202E2E2E200D0A002B2B2B200D0A74
S123AAA000536574445649566964656F4F75747075742829200D0A0020536574436F6C6F9A
S123AAC072696D6574727942794D6F64652829205245475F52585F504958434C4B5F5350A2
S123AAE04545443D2578200D0A005365744E6577496E666F566964656F4F757470757428E1
S123AB0029200D0A00302D3235350D0A0031362D3233350D0A00435343203D2059555632F0
S123AB205247422000495455363031200020302D3235350D0A002031362D3233350D0A00D8
S123AB4049545537303920004F7574707574206D6F64652069732052474232340D0A00492C
S123AB606E707574206D6F6465206973205247423434340D0A00496E707574206D6F6465C6
S123AB80206973205955563432320D0A00496E707574206D6F646520697320595556343485
S123ABA0340D0A004F7574707574206D6F6465206973205955563434340D0A000D0A2121C4
S123ABC02120536574436F6C6F725370616365436F6E76657274282029202121210D0A002D
S123ABE0536574566964656F496E707574466F726D617457697468496E666F4672616D65A2
S123AC00202D2052656741453D2578206974363830322D3E6D5F62496E7075745669646547
S123AC206F4D6F64653D25780D0A00696E707574205247423234206D6F64652000696E706E
S123AC40757420595556343232206D6F64652000696E70757420595556343434206D6F6416
S123AC6065200043445220726573657420666F7220534344545F4F46465F54494D454F550E
S123AC8054202121210D0A004954363830325F66736D5F696E6974282029200D0A003D3D7B
S123ACA03D3D3D20207265616420526567307825783D2578203D3D3D3D3D20200D0A004DAB
S123ACC0484C20493243204552524F52202121210049543638303220493243204552524F2E
S123ACE05220212121003D3D3D3D3D2020577269746520526567307825783D2578203D3D08
S123AD003D3D3D20200D0A0048444D4920493243204552524F5220212121003D3D3D3D3DC3
S123AD203D3D3D3D3D3D3D3D3D3D3D3D3D3D3D3D3D3D3D3D3D3D3D3D3D3D3D3D3D3D3D0D9F
S123AD400A003D3D3D3D3D2020526561642052656730782578203D20200D0A0048444D499F
S123AD602052656164204552524F5220212121004153544154455F526573657276656400A5
S123AD804153544154455F417564696F4F6E004153544154455F57616974466F72526561EA
S123ADA06479004153544154455F5265736574417564696F004153544154455F52657175DE
S123ADC0657374417564696F004153544154455F417564696F4F6666005653544154455FCD
S123ADE05265736572766564005653544154455F48444D495F4F4646005653544154455F47
S123AE00436F6C6F724465746563745265736574005653544154455F566964656F4F6E00E9
S123AE205653544154455F4D6F6465446574656374696E67005653544154455F4844435067
S123AE405F5265736574005653544154455F48444350536574005653544154455F53796E9B
S123AE6063436865636B696E67005653544154455F53575265736574005653544154455F36
S123AE8053796E6357616974005653544154455F35564F6666005653544154455F5465723F
S123AEA06D696E6174696F6E4F6E005653544154455F5465726D696E6174696F6E4F666697
S123AEC0005653544154455F4F66660057C8C9CACB184748494A5B7DDFE70DA580CC8FDE5D
S123AEE060003001FF04172C97BB240F0102040800000001308060507070706080905090E2
S123AF00A040A0A830A000000002F6F60A0810106469756F785800303132333435363738C0
S11FAF20396162636465666768696A6B6C6D6E6F707172737475767778797A00B9
S22400AFF3AE17FF9490CEAF3CAEAF3EF62720A5602717BF04EE03BF07BE04EE0190F6F75C79
S22400B013905C90B30726F5BE041C000520DDAE00002002F75CA3000A26F9AE01AF2002F781
S22400B0335CA3048026F98D00FE5C20FE725F5400725F5401725F5402725F5406725F540788
S22400B05387897B09889F977B02958D00B13F847B068D00B09E7B08977B07958D00B16D7BC0
S22400B0730B977B0A958D00B0B17210540185874D270672105401200472115401874D2706DD
S22400B093721A54002004721B54008788C65401A48FC75401C654011A01C754018487899EB6
S22400B0B3A11F26209F4D270A725F5407725F54062078C65407AAFFC75407C65406AAFFC7EA
S22400B0D3540620667B01A108242F0D0227167B015F97A6015D2704485A26FC43C45407C726
S22400B0F3540720467B015F97A6015D2704485A26FCCA5407C7540720310D0227187B01A010
S22400B113085F97A6015D2704485A26FC43C45406C7540620157B01A0085F97A6015D270426
S22400B133485A26FCCA5406C7540685878972175402C654021A06C754029EA1012606721231
S22400B1535401200472135401C65400A4F0C75400C654001A02C75400858789C65402A4CF46
S22400B173C754029F4D2706721C54022004721D5402C654021A01C7540285877210540187D6
S22400B1935205C65402A5082715C654056B03C654045F971F041E047B03021F042021C65457
S22400B1B3045F971F04C654056B031E044F021F017B0397A64042011A02011A01011F041E82
S22400B1D3045B0587C65400A48087721F540087C65400A48087721F540087C65240C6524159
S22400B1F3725F5243725F5242725F5244725F5245725F5246725F5247725F524987520E7205
S22400B213195244C652441A16C75244C65246A4CFC75246C652461A17C75246C65244A4F967
S22400B233C75244C652441A18C75244725F5242C65243A40FC75243C65243A4F0C7524396FE
S22400B2531C00128D011B22A6048D011AE6961C00018D011B6A8D00FE9B961C00018D011B5D
S22400B27334961C000B8D011B6A961C00128D011B22A6048D011AE6961C00018D011B6A8D98
S22400B29300FE9BA6648D011BD9961C00018D011B34961C00078D011B6A961C000B8D011BAF
S22400B2B322A6648D011BD9961C00018D011B6A961C00078D011B22961C00018D011B0AA672
S22400B2D3048D011AE6AE80808D011B34B603A40F6B05961C000B8D011B22A6048D011B4939
S22400B2F3B603A4F0B7033F023F013F00B6036B067B051A06C752437B0EC752427B19A50428
S22400B3132706721652452004721752457B19A5082706721452452004721552455B0E874D7B
S22400B3332706721B52442004721A52448789899E6B019FA40F5F97A6015D2704485A26FC81
S22400B3536B020D08273A7B01A101260AC652441A02C7524420667B01A102260AC652451A83
S22400B37302C7524520567B01A103260AC652471A02C752472046C652491A02C75249203C13
S22400B3937B01A101260B7B0243C45244C75244202B7B01A102260B7B0243C45245C75245BB
S22400B3B3201A7B01A103260B7B0243C45247C7524720097B0243C45249C752495B04874D90
S22400B3D32706721A52472004721B524787899E4D2706721A52492004721B52490D022706E2
S22400B3F3721852492004721952490D062706721E52492004721F524985874D2706721C52A5
S22400B413462004721D52468772175244CA5244C75244874D270672125245200472135245C4
S22400B43387C652418789C652445FA4805F02581F01C652415F97011A02011A010101A4FF1F
S22400B45301A401015B0287C752418789721D524454549FA440CA5244C752447B02C75241FB
S22400B4738587721052458788C65247A4F0C75247C652471A01C7524784878988A30210265C
S22400B493109FC452472706A6016B0120390F0120351E02A301012611C6524515032706A646
S22400B4B3016B0120210F01201D1E02A3030227071E02A303012614C6524915032706A60135
S22400B4D36B0120020F017B015B0387C6524015032706A6016B0120EE0F0120EA89A3002031
S22400B4F3260635DF5240201E1E01A3021026067219524720111E01A30302260672135249BC
S22400B513200472115249858789899FA40F5F97A6015D2704485A26FC6B017B044EA40F6B21
S22400B533027B025F97A6015D2704485A26FC6B021E03A30100261CC6524414026B02C65220
S22400B553401501270A0D022706A6016B0220640F0220601E03A30346261CC6524714026BB8
S22400B57302C652471501270A0D022706A6016B0220410F02203D1E03A30412261CC652496F
S22400B59314026B02C652491501270A0D022706A6016B02201E0F02201AC6524514026B02AF
S22400B5B3C652401501270A0D022706A6016B0220020F027B025B048789A30255260635DF2B
S22400B5D3524020111E01A303462606721952472004721352498587A1FD260A3556506235A5
S22400B5F3AE5062200835AE50643556506487891E081F017B0A1E01F7A6048D00B62B4D2758
S22400B613F78587891E081F011E01F685877211505ACA505AC7505A8788C4505F2706A601B7
S22400B6336B0120020F017B015B01873B0006BE04893B0009BE0789C602B65F97898D00BB92
S22400B653A585D702B7AE02558D00BB95725D02B6260DC602B7A1FF2725725F02B62012C690
S22400B67302B6A1012618C602B8A1552711725F02B685BF0732000985BF0432000680C60295
S22400B693B9A1022608AE0107CF01012006AE0008CF0101725C02B6C602B65F97C3010126EF
S22400B6B308725F02B63501010020C68D00BBA9AE00808D00BBAD4D27F68789880F0120116D
S22400B6D31E021C00011F021D0001F68D00B6BE0C017B01110725E95B03874B0C4B804B00DE
S22400B6F34B004B00AEC20089AE0001898D00B9C05B094B01AE02558D00BB2484A6018D008C
S22400B713BB164B0C4B004B004B00AEC20089AE0001898D00B2105B08A6018D00B332725F3B
S22400B73302B6875206725D01002604AC00B9A9725F0100AE0107D602B6D701AE5A26F7C679
S22400B75301B14D27154A275C4A2604AC00B8134A2604AC00B8E2AC00B9A9C601B2CB01B31E
S22400B773CB01B4CB01B5A000406B057B05C101B62620AE01B5894B01C601B397C601B295CA
S22400B7938D010D775B036B060D06260A35FF01B1200435FE01B14B08AE01AF8D00B6CD8439
S22400B7B3AC00B9A9C601B2CB01B3CB01B4CB01B5A000406B057B05C101B62632AE01B589DD
S22400B7D34B01C601B397C601B2958D010C9A5B036B06C601B2CB01B3CB01B4CB01B5A0004A
S22400B7F340C701B60D06260A35FF01B1200435FE01B14B08AE01AF8D00B6CD84AC00B9A9EE
S22400B813C601B2CB01B3CB01B46B05AE00001F03AE00001F011E037B05DB01B56B05961C36
S22400B8330001A6018D011AAD961C00018D011B22AE80848D011A8D25DCA60010056B057BE7
S22400B85305C102B52677AE00001F03AE00001F011E035858581C01B5894B087B07484848E7
S22400B87397C601B2958D010D775B036B060D062730C601B2A1A0250EC601B2A1B02407AE30
S22400B89300148D00C063961C0001A6018D011AAD961C00018D011B22AE80888D011A8D258F
S22400B8B3AFC601B2CB01B3CB01B4CB01B5A00040C701B60D06260A35FF01B1200435FE01E9
S22400B8D3B14B08AE01AF8D00B6CD84AC00B9A9C601B2CB01B3CB01B4CB01B5A000406B0503
S22400B8F37B05C101B62704AC00B99BAE0100724F01B45A26F9AE00001F03AE00001F011EB3
S22400B91303585858581C01B5894B107B0797A610429F97C601B2958D010C9A5B036B060D91
S22400B93306271B961C0001A6018D011AAD961C00018D011B22AE808C8D011A8D25C1C601DE
S22400B953B2CB01B3CB01B46B05AE00001F03AE00001F011E037B05DB01B56B05961C0001BB
S22400B973A6018D011AAD961C00018D011B22AE80848D011A8D25DCA6001005C702B50D0601
S22400B993260A35FF01B1200435FE01B14B07AE01AF8D00B6CD845B0687888D00B45AAE0073
S22400B9B3808D00B48D4D27F67B015B0187520C72195234C652341A14C75234C65236A4CF61
S22400B9D3C75236C652361A15C75236C65234A4F9C75234C652341A16C75234725F5232C61A
S22400B9F35233A40FC75233C65233A4F0C75233961C00108D011B22A6048D011AE6961C0009
S22400BA13018D011B6A8D00FE9B961C00018D011B34961C00098D011B6A961C00108D011B0B
S22400BA3322A6048D011AE6961C00018D011B6A8D00FE9BA6648D011BD9961C00018D011BC0
S22400BA5334961C00058D011B6A961C00098D011B22A6648D011BD9961C00018D011B6A9662
S22400BA731C00058D011B22961C00018D011B0AA6048D011AE6AE80908D011B34B603A40F1D
S22400BA93CA5233C75233961C00098D011B22A6048D011B49B603A4F0B7033F023F013F000A
S22400BAB3B603CA5233C75233C652321A0CC75232C65235A4F3C75235C65236A4F8C75236F4
S22400BAD37B17A407CA5236C752367B18A5042706721652352004721752357B18A508270657
S22400BAF3721452352004721552357B17A580270672175236200A7B17A408CA5236C75236F1
S22400BB135B0C874D2706721B52342004721A52348789899E6B019FA40F5F97A6015D270442
S22400BB33485A26FC6B020D08272A7B01A101260AC652341A02C7523420457B01A102260A9F
S22400BB53C652351A02C752352035C652371A02C75237202B7B01A101260B7B0243C4523462
S22400BB73C75234201A7B01A102260B7B0243C45235C7523520097B0243C45237C752375B9C
S22400BB930487A30255260635DF523020047219523787C6523187C75231878988A3021026FA
S22400BBB3109FC452372706A6016B01202B0F0120271E02A301012611C6523515032706A65B
S22400BBD3016B0120130F01200FC6523015032706A6016B0120020F017B015B038789130699
S22400BBF3240813082304A60120014F8587725D03D0274BC603CF4D27254A27244A27244AE3
S22400BC1327244A27244A2724A070272CA04B27224A2728A002271EA0042714A6FF874F879F
S22400BC33A60187A60287A60387A60487A60587A60687A60987A60A87A60787A60F87C60323
S22400BC53CF4A2746A00F2725A002272FA00327254A271FA0062727A034271DA0042710A04D
S22400BC7302271E4A271EA004271DA6FF874F87A60187A60287A60387A60487A60587A60650
S22400BC9387A60987A60A87A60787A60F874B204B40AE50008D0100CC85AE00024F958D0133
S22400BCB30053AEFFFF89A6048D010A3885A6018D010A484B004B80AE50058D0100CC854B1B
S22400BCD3004B074B084B004B004B00AE0007A601958D00B0545B068D00B18E725F03D672FB
S22400BCF35F03CE725F03CD35FF03CF87AE007DA607958D010A82AE0001A601958D010A992B
S22400BD13A6018D010A8B725F03CCAE0000CF03CAAE0000CF03C8AE0000CF03C6AE0000CF4C
S22400BD3303C4AE0001CF03C2AE0000CF03C08788725D03CE2604AC00BE04AE03C48D011B3C
S22400BD5322AE80948D011A8D2704AC00BE048D00BC006B017B014D27254A27294A272E4ACC
S22400BD7327334A27384A273D4A27424A270AA008263F8D01100220398D01109620334F8D63
S22400BD9301111A202CA6018D01111A2024A6028D01111A201CA6038D01111A2014A6048D05
S22400BDB301111A200CA6058D01111A20048D0110477B01A10B27167B01A10C27107B01A1C4
S22400BDD30D270A7B01A10E270435FF03CF725D03CD2712725F03CDAE01F5CF03C6AE00004E
S22400BDF3CF03C4200CAE0033CF03C6AE0000CF03C4C603CCA1012614725F03CCAE0000CF1E
S22400BE1303C6AE0000CF03C4725F03CEAE03C08D011B22AE80948D011A8D26138D00B1931E
S22400BE33CF03BEAE0065CF03C2AE0000CF03C084873B0006BE04893B0009BE078952030FE6
S22400BE53014F8D010A48AE00018D010A788D010A5F1F025F8D010A56A6018D010A481E02CF
S22400BE73A33C8D2506A6016B012043C603D64D27054A274A2038AE30D489AE3C8C891E0614
S22400BE938D00BBF05B044D270A358103CC350103D62017AE280A89AE2FDA891E068D00BB95
S22400BEB3F05B044D2704358103CC725F03D50D012604AC00BFB0725F03D6AC00BFB0AE06A9
S22400BED3A489AE0AF0891E068D00BBF05B044D271EC603D54444445F97C603D54444449045
S22400BEF35F909790D603D144AA80D703D12025AE032089AE05AA891E068D00BBF05B044DC4
S22400BF13270EC603D54444445F97724403D12004A6016B01725C03D5C603D5A120268F0DEC
S22400BF3301268B725F03D6725D03D12607C603D2A1DF270EC603D1A14F2652C603D2A150DF
S22400BF53264BC603D3C803D4A1FF2641725D03CE2704AC00BEC15503D303CF350103CE35E7
S22400BF730103CDAE0001CF03C6AE0000CF03C4C603D1A14F260FC603D2A15026083501039B
S22400BF93D0AC00BEC1725F03D0AC00BEC1A6016B01AC00BEC1AC00BEC1AC00BEC15B038548
S22400BFB3BF0732000985BF04320006803B0006BE04893B0009BE0789BE0289BE00894F8DDE
S22400BFD3010A8BA6018D010AB29D9D9D9D9D9D9D9D9D9D9DA6018D010A8BC603CCA10225DC
S22400BFF304725A03CCAE03C88D011B22AE80988D011A8D2509AE03C8A6018D011AD0AE03D4
S22400C013C48D011B22AE80988D011A8D2509AE03C4A6018D011AD0AE03C08D011B22AE8052
S22400C033988D011A8D2509AE03C0A6018D011AD08D0111AFAE0103A6018D011AAD85BF001D
S22400C05385BF0285BF0732000985BF04320006808D011C18AE03C88D011B6AAE03C88D01A7
S22400C0731B22AE80988D011A8D24F0AE0000CF03CAAE0000CF03C88789881E07897B05887C
S22400C0937B0597A6A0958D010D775B036B010D012604A60120014F5B038788961C000189C2
S22400C0B34B0197A6A0958D010C9A5B037B015B01878889961C0002894B0197A690958D012F
S22400C0D30C9A5B036B010D012612AEAD5C8D0111E27B0388AEAD428D0111E2847B025B03D7
S22400C0F3878988961C0003894B017B0597A690958D010D775B036B010D012623AEAD1B8DEE
S22400C1130111E2AEAD088D0111E27B03887B0388AEACE68D0111E285AEAD1B8D0111E20DD9
S22400C133012604A60120014F5B038789899E8D00C0C46B027B0414086B017B0443A4FF1412
S22400C153021B016B027B02977B03958D00C0F45B048789889F4D27141E07897B05887B0580
S22400C17397A690958D010D775B036B010D012624AEAD1B8D0111E2AEACD18D0111E21E0749
S22400C193897B0488AEACE68D0111E25B03AEAD1B8D0111E25B03878889961C0002894B0162
S22400C1B397A6E0958D010C9A5B036B010D012623AEAD1B8D0111E2AEACBF8D0111E27B0252
S22400C1D3887B0488AEAC9E8D0111E285AEAD1B8D0111E27B025B03878988961C0003894BC7
S22400C1F3017B0597A6E0958D010D775B036B010D012623AEAD1B8D0111E2AEACBF8D011112
S22400C213E27B03887B0388AEACE68D0111E285AEAD1B8D0111E20D012604A60120014F5B31
S22400C233038789899E8D00C1AA6B027B0414086B017B0443A4FF14021B016B027B02977BAD
S22400C25303958D00C1EB5B0487899F4D27121E06897B04887B0497A6E0958D010C9A5B03EA
S22400C2738587899F4D27121E06897B04887B0497A6E0958D010D775B038587AE04088789C1
S22400C293895F1F01203D1E0190AE00038D011A3172FB03E602881E0290AE00038D011A31CE
S22400C2B372FB04E60197891E0490AE00038D011A3172FB06F685958D00C13E841E011C00E4
S22400C2D3011F011E0190AE00038D011A3172FB03F6A1FF26B15B048789895F1F01203D1E1D
S22400C2F30190AE00038D011A3172FB03E602881E0290AE00038D011A3172FB04E601978979
S22400C3131E0490AE00038D011A3172FB06F685958D00C235841E011C00011F011E0190AE85
S22400C33300038D011A3172FB03F6A1FF26B15B04876F146F156F166F176F187F6F016F024D
S22400C353905FEF0B905FEF0D905FEF0FE675A4FDE775E675A4FBE775E675A4F7E775E675A9
S22400C373A4EFE775E675A4DFE775E675A4BFE775E675A47FE775A640E712E675A4FEE77550
S22400C39387898D00C3441E018D00E908AE809C8D00C292AE81418D00C2EB8587898D00C20B
S22400C3B38E1F01AEAC888D0111E21E018D00C394725D010D26284B00AE0080A677958D006E
S22400C3D3C13E84AE00018D00C5CF4B00AE0080A6C0958D00C13E845F8D00C5CF20264B80DD
S22400C3F3AE0080A677958D00C13E84AE00018D00C5CF4B80AE0080A6C0958D00C13E845F02
S22400C4138D00C5CFAE001FA627958D00C0F4AE001FA628958D00C0F4AE001FA629958D0044
S22400C433C0F4AE001FA63F958D00C0F4AE001FA640958D00C0F4AE001FA641958D00C0F495
S22400C453AE00018D00C5CFAE0006A6BC958D00C0F45F8D00C5CF4B40AE0040A620958D0027
S22400C473C13E84AE0038A622958D00C0F4AE0080A626958D00C0F4AE00018D00C5CFAE004F
S22400C49306A6BC958D00C0F45F8D00C5CF4B40AE0040A638958D00C13E84AE0038A63A956F
S22400C4B38D00C0F4AE0080A63E958D00C0F44B08AE0008A616958D00C13E844B08AE0008C8
S22400C4D3A61D958D00C13E84AE0007A62B958D00C0F4AE00E1A634958D00C0F44B04AE0044
S22400C4F30CA635958D00C13E84AE0011A654958D00C0F4AE0081A66A958D00C0F44B00AEFB
S22400C5130008A671958D00C13E84AE00A0A674958D00C0F4AE0088A637958D00C0F4AE006A
S22400C53388A64D958D00C0F4AE00018D00C5CF4B03AE0003A6B5958D00C13E845F8D00C512
S22400C553CF4B08AE0008A673958D00C13E84AE0022A690958D00C0F4AE00018D00C063AE44
S22400C5730022A690958D00C0F4AE00018D00C063AE0022A690958D00C0F44B00AE0040A65B
S22400C593C0958D00C13E844B00AE0003A6C0958D00C13E844B01AE0001A687958D00C13ECE
S22400C5B3844B00AE0009A628958D00C23584AE82D78D00E50F4F8D00CD5E85875D270B5AEE
S22400C5D327175A27235A272F203A4B00AE0003A60F958D00C13E84202B4B01AE0003A60F04
S22400C5F3958D00C13E84201C4B02AE0003A60F958D00C13E84200D4B03AE0003A60F958DE7
S22400C61300C13E84878989A6518D00C0C4A4016B01A60A8D00C0C46B021E03E6111101264F
S22400C633127B02A58027081E036F14A60120014F5B048720FB895203A60A8D00C0C4A48977
S22400C6536B02A60B8D00C0C4A4896B01A6518D00C0C4A4016B037B02A580270F1E046F1462
S22400C6734B061E058D00D1058420770D0326147B02A409A10926061E046C1420181E046FFB
S22400C6931420127B01A409A10926061E046C1420041E046F141E04E614A16625451E046FB4
S22400C6B314AEAC638D0111E20D03261C4B0CAE000CA611958D00C13E844B00AE000CA61195
S22400C6D3958D00C13E84201A4B0CAE000CA618958D00C13E844B00AE000CA618958D00C149
S22400C6F33E845B058789A6A88D00C0C4A4116B01A6518D00C0C4A4016B027B01A501270409
S22400C7130D02270C7B01A510270A7B02A1012604A60120014F8587884D263CA60A8D00C0BD
S22400C733C4A4016B017B01A5012728A60A8D00C0C4A5402619AE00018D00C5CF4B03AE00EA
S22400C75303A6B0958D00C13E845F8D00C5CFA6015B01874F5B0187A60B8D00C0C4A4016BB5
S22400C773017B01A5012705A6015B01874F5B01875203A60A8D00C0C4A4026B01A60B8D0030
S22400C793C0C4A4026B02A6518D00C0C4A4016B037B01A50227040D03270C7B02A502270AE9
S22400C7B37B03A1012604A60120014F5B038789890F01AE00028D00C5CFA6158D00C0C46BF1
S22400C7D3025F8D00C5CF1E03E613A4FCE7137B024E44A4075FA4035F5F975D272A5A2716B1
S22400C7F35A27022055AEAC508D0111E21E03E613AA02E713201CAEAC3D8D0111E21E03E6E3
S22400C81313AA01E713200BAEAC2B8D0111E21E03E6131E03E613887B0388AEABE08D01117D
S22400C833E285A6718D00C0C46B027B02A4FB6B027B0297A671958D00C1EB5B04878988AEBD
S22400C85300028D00C5CFA6168D00C0C46B015F8D00C5CF7B01A4C06B017B01A140260A1EED
S22400C87302E613A4EFE713200E7B01A18026081E02E613AA10E7135B0387E613E712E61382
S22400C893A4034D27084A27144A2720202B4B00AE0030A665958D00C13E84201C4B10AE00DE
S22400C8B330A665958D00C13E84200D4B20AE0030A665958D00C13E848789890F01AEABBC9C
S22400C8D38D0111E21E03E612A4034D2604AC00C9B94A276E4A2704AC00CA0EAEABA48D01F7
S22400C8F311E21E03E613A4034D27444A27144A2704AC00CA0EAEAB8D8D0111E20F02AC0012
S22400C913CA0EAEAB768D0111E20F021E03E612A54027067B01AA016B011E03E612A58026A4
S22400C93304AC00CA0E7B01AA056B01AC00CA0EAEAB5F8D0111E2A6016B02AC00CA0EAC00BF
S22400C953CA0E1E03E613A4034D273E4A27224A2704AC00CA0EAEAB8D8D0111E21E03E61268
S22400C973A54027067B01AA016B010F02AC00CA0EAEAB768D0111E20F021E03E612A580279F
S22400C9937A7B01AA056B012072AEAB5F8D0111E21E03E612A54027067B01AA016B01A6013E
S22400C9B36B0220572055AEAB488D0111E21E03E613A4034D273C4A27104A263FAEAB8D8DD0
S22400C9D30111E2A6036B022032AEAB768D0111E2A6036B021E03E612A54027067B01AA012B
S22400C9F36B011E03E612A58027117B01AA056B012009AEAB5F8D0111E20F027B02A10127ED
S22400CA1304AC00CAB81E03E613A510274DAEAB408D0111E21E03E613A520271FAEAB368D2E
S22400CA330111E2AE00018D00C5CFAE825989AE0015A670958D00C16585206AAEAB2D8D01C4
S22400CA5311E2AE00018D00C5CFAE826E89AE0015A670958D00C16585204BAEAB258D0111A6
S22400CA73E21E03E613A520271FAE00018D00C5CFAE822F89AE0015A670958D00C16585AE8B
S22400CA93AB368D0111E2201DAE00018D00C5CFAE824489AE0015A670958D00C16585AEAB13
S22400CAB32D8D0111E27B02A1032704AC00CB69AEAB168D0111E21E03E613A510274DAEABF8
S22400CAD3408D0111E21E03E612A520271FAEAB0D8D0111E2AE00018D00C5CFAE82AD89AE8E
S22400CAF30015A670958D00C16585206AAEAB058D0111E2AE00018D00C5CFAE82C289AE00C4
S22400CB1315A670958D00C16585204BAEAB258D0111E21E03E612A520271FAEAB0D8D011172
S22400CB33E2AE00018D00C5CFAE828389AE0015A670958D00C16585201DAEAB058D0111E22D
S22400CB53AE00018D00C5CFAE829889AE0015A670958D00C165855F8D00C5CF7B0288AE00C3
S22400CB7303A665958D00C13E847B0188AE0007A667958D00C13E845B048789AEAAEA8D0140
S22400CB9311E21E018D00C7C11E018D00C8501E018D00C8CC1E018D00CD2385878988A67182
S22400CBB38D00C0C46B017B01AA046B017B01A4FC6B011E02E613A4FCE7137B074D27284AA7
S22400CBD327154A2702202E7B01AA026B011E02E613AA02E71320147B01AA016B011E02E620
S22400CBF313AA01E71320041E02E6137B0197A671958D00C1EB5B03878988A69A8D00C0C4E9
S22400CC136B017B0188AEAAB88D0111E2841E02E613A4EFE7137B01A134240A1E02E613AA8F
S22400CC3310E71320081E02E613A4EFE7135B038789AEAAA18D0111E24B001E028D00CBAFAA
S22400CC53841E018D00CC0B1E018D00C8CC1E018D00CD2385878988A640E7128D00C7831EE8
S22400CC7302484848E875A408E875E7751E02E675A50826081E028D00CC4320061E028D001B
S22400CC93CB8D1E02E675A4DFE775A6998D00C0C4A4F04EA40F1E02E7361E02E636A00527A0
S22400CCB3124A271E4B00AE000CA665958D00C13E84201C4B04AE000CA665958D00C13E8411
S22400CCD3200D4B08AE000CA665958D00C13E84A69A8D00C0C46B017B01A11224081E02A674
S22400CCF301E73520041E026F351E02E635A101260F4B30AE0030A651958D00C13E84200DE3
S22400CD134B00AE0030A651958D00C13E845B0387E612A4034D27084A27144A2720202B4B8A
S22400CD3300AE0030A665958D00C13E84201C4B10AE0030A665958D00C13E84200D4B20AEE2
S22400CD530030A665958D00C13E8487898D00C28E1F014B00AE0001A651958D00C13E841E1A
S22400CD73016F114B041E028D00D1058485874B02AE0002A610958D00C13E844B00AE000265
S22400CD93A610958D00C13E8487A101260F4B00AE001FA652958D00C13E84200D4B1FAE00C8
S22400CDB31FA652958D00C13E84874B02AE0002A610958D00C13E844B00AE0002A610958DED
S22400CDD300C13E84874B20AE0020A67D958D00C13E84874B10AE0010A67D958D00C13E84C8
S22400CDF3874B00AE0010A67D958D00C13E84878988A6AE8D00C0C46B017B01A40F1E02E724
S22400CE1302A6AA8D00C0C46B017B01A4F01E02F77B01A40F1E02E701A6AA8D00C0C4A40FB9
S22400CE331E02EA01E7017B01A5602614A6AB8D00C0C46B017B01A50126061E02F6AA01F758
S22400CE535B038789E60111062604AC00CEDE7B065F9758DE01348D0111E2AEAA9A8D0111D8
S22400CE73E27B061E01E7011E01E6014D270C4A271DA00227204A272F20514B02AE0002A67F
S22400CE9310958D00C13E844F8D00CD9C203D4F8D00CD9C20368D00CDE68D00CDF41E01904B
S22400CEB3AE0015EF0F2024A6018D00CD9C1E01E6055F97891E03E6045F97891E05E6035F3A
S22400CED39789AEAA5F8D0111E25B068587895208909390EE0F90A30033250C9093EE0F1D0E
S22400CEF3003290EF0F20061E09905FEF0F1E09E602A1012604AC00CFEC1E09E6014A27134C
S22400CF13A0022604AC00CFA04A2604AC00CFB3AC00CFEC1E091C00038D00CE021E09E60356
S22400CF33A5802604AC00CFEC4B10AE0070A654958D00C13E841E09E603A540271EAEAA2F4A
S22400CF538D0111E24B00AE0070A654958D00C13E848D00CDD88D00CDBD20271E09E603A5EB
S22400CF7320270A8D00CDD88D00CDBD20154B00AE0010A67D958D00C13E848D00CDD88D003A
S22400CF93CDBD4B031E0A8D00CE5684204C1E09E610EA0F26444B041E0A8D00CE5684203953
S22400CFB31E09E610EA0F26311E0990AE0097EF0F961C00018D00CE021E09E603110126108A
S22400CFD31E09E604110226081E09E605110327094B011E0A8D00CE56845B0A87885F8D0088
S22400CFF3C5CFA6518D00C0C46B017B01A50127234B0CAE000CA611958D00C13E84AE000189
S22400D0138D00C0634B00AE000CA611958D00C13E8420214B0CAE000CA618958D00C13E8432
S22400D033AE00018D00C0634B00AE000CA618958D00C13E848487890D0627294BC0AE00C0A1
S22400D053A653958D00C13E844B20AE0020A652958D00C13E844B00AE000EA653958D00C161
S22400D0733E84206C1E01F6A10A26654B00AE0001A653958D00C13E844B00AE000EA65395D2
S22400D0938D00C13E848D00C6F8A101260F4B20AE0020A652958D00C13E8420344B0EAE0015
S22400D0B30EA653958D00C13E844B00AE000EA653958D00C13E844BC0AE00C0A653958D0073
S22400D0D3C13E844B40AE00C0A653958D00C13E8485874D270F4B00AE000FA653958D00C1AB
S22400D0F33E84200D4B0FAE000FA653958D00C13E848789F611062604AC00D18C7B065F97AD
S22400D11358DE01188D0111E2AEAA9A8D0111E27B061E01F71E01F6A00427124A27094A2740
S22400D13327A004272D20528D00CFEF204C4F8D00D0E51E01E675A4DFE7751E016F171E01E1
S22400D1536F181E016F1420311E0190AE0065EF0D20271E018D00CC68A6018D00D0E54B0123
S22400D1731E028D00CE56848D00F5718D00F6D8AE008FA684958D00C0F4858789909390EE81
S22400D1930D90A30033250C9093EE0D1D003290EF0D20061E01905FEF0D1E01F6A004270AC0
S22400D1B3A002270EA004271D20531E018D00C648204B1E01E60EEA0D26434B0A1E028D008B
S22400D1D3D1058420381E01E675A52027161E01E602A101270E1E018D00CC681E01E675A42D
S22400D1F3DFE775A6538D00C0C4A58027108D00C6F84D26094B001E028D00D0498485878985
S22400D21388A6518D00C0C4A4016B017B011107262B7B078D00C72A4D2712AEAA178D0111DC
S22400D233E24B041E038D00D105842010AEA9FE8D0111E24B051E038D00D105845B0387E674
S22400D253156C15A12A25236F15AEA9D88D0111E24B0CAE000CA611958D00C13E844B00AE73
S22400D273000CA611958D00C13E8487E6166C16A12A25236F16AEA9B28D0111E24B0CAE0002
S22400D2930CA618958D00C13E844B00AE000CA618958D00C13E8487E6176C17A12A25236F16
S22400D2B317AEA9898D0111E24B0CAE000CA611958D00C13E844B00AE000CA611958D00C1D2
S22400D2D33E8487E6186C18A12A25236F18AEA9608D0111E24B0CAE000CA618958D00C13EA9
S22400D2F3844B00AE000CA618958D00C13E8487898D00C7834D27211E01F6A10A26094B0173
S22400D3131E028D00CE56841E01E675AA08E775AEA93F8D0111E2202D4B001E028D00CE5698
S22400D333841E01E675A4DFE7751E01F6A10A26061E018D00CC431E01E675A4F7E775AEA989
S22400D3531F8D0111E28587898D00C618A1012612AEA90B8D0111E24B061E028D00D1058400
S22400D3732019AEA8F68D0111E24B041E028D00D105844B001E028D00CE568485875224AE69
S22400D39300028D00C5CFA69F8D00C0C45F971F0BA6A08D00C0C45F971F0DA6A18D00C0C40B
S22400D3B35F971F0FA6A28D00C0C45F971F11A6A38D00C0C45F971F13A69A8D00C0C45F97E9
S22400D3D31F01A69B8D00C0C45F971F03A69C8D00C0C45F971F05A69D8D00C0C45F971F07CE
S22400D3F3A69E8D00C0C45F971F09A6A48D00C0C45F971F15A6A58D00C0C45F971F17A6A649
S22400D4138D00C0C45F971F19A6A78D00C0C45F971F1BA6A88D00C0C45F971F1DA6A98D00BA
S22400D433C0C45F971F1FA6AA8D00C0C45F971F21A6AB8D00C0C45F971F231E155301A4FFC1
S22400D4535F021F15011E175301A4FF5F021F17011E195301A4FF5F021F19011E1B5301A461
S22400D473FF5F021F1B011E1D5301A4FF5F021F1D011E1F5301A4FF5F021F1F011E215301C2
S22400D493A4FF5F021F21011E235301A4FF5F021F23017B025F4D2A0153A40F5F0289011EF0
S22400D4B30357575757897B085F4D2A0153A40F5F0289011E0957575757897B0E5F4D2A01B5
S22400D4D353A40F5F0289011E0F57575757897B145F4D2A0153A40F5F0289011E15575757A2
S22400D4F357897B1A5F4D2A0153A40F5F0289011E1B5757575789AEA8D58D0111E25B147B23
S22400D5130C5F4D2A0153A40F5F0289011E0D57575757897B125F4D2A0153A40F5F028901BA
S22400D5331E1357575757897B185F4D2A0153A40F5F0289011E1957575757897B1E5F4D2AD7
S22400D5530153A40F5F0289011E1F57575757897B245F4D2A0153A40F5F0289011E25575747
S22400D573575789AEA8B48D0111E25B147B165F4D2A0153A40F5F0289011E175757575789EF
S22400D5937B1C5F4D2A0153A40F5F0289011E1D57575757897B225F4D2A0153A40F5F028990
S22400D5B3011E2357575757897B285F4D2A0153A40F5F0289011E2957575757897B2E5F4D40
S22400D5D32A0153A40F5F0289011E2F57575757897B345F4D2A0153A40F5F0289011E3557C4
S22400D5F3575757897B3A5F4D2A0153A40F5F0289011E3B57575757897B405F4D2A0153A441
S22400D6130F5F0289011E415757575789AEA8878D0111E25B205F8D00C5CF5B24878888A69F
S22400D633016B017B025FA47F5F028901AEA8788D0111E2857B02A47FA020A15F2504AC0072
S22400D653D7178D011A60019F01AA01B501C001CB01D601E101EC01F70202020D021802233E
S22400D67303B603B603B6022E02390244024F025A02650270027B028603B603B603B603B647
S22400D69303B603B603B603B60291029C02A702B202BD02C802D302DE02E902F402FF030AD3
S22400D6B303B603B603B60315032003B603B603B603B603B603B603B603B603B603B603B6F9
S22400D6D303B603B603B6032B03360341034A0353035C0365036E037703B603B603B603B623
S22400D6F303B603B603B603B6038003890392039B03A403B603B603B603B603B603B603B636
S22400D71303B603ADA0E027434A274B4A27534A275B4A27634A276B4A27734A277B4A26045E
S22400D733AC00D7B64A2604AC00D7C14A2604AC00D7CC4A2604AC00D7D74A2604AC00D7E276
S22400D7534A2604AC00D7EDAC00DA0FAEA8718D0111E2AC00DA18AEA86E8D0111E2AC00DA87
S22400D77318AEA8698D0111E2AC00DA18AEA8648D0111E2AC00DA18AEA85E8D0111E2AC00E1
S22400D793DA18AEA8558D0111E2AC00DA18AEA84A8D0111E2AC00DA18AEA8428D0111E2AC31
S22400D7B300DA18AEA8388D0111E2AC00DA18AEA82E8D0111E2AC00DA18AEA8238D0111E215
S22400D7D3AC00DA18AEA8158D0111E2AC00DA18AEA8078D0111E2AC00DA18AEA8028D011196
S22400D7F3E2AC00DA18AEA7F88D0111E2AC00DA18AEA7EE8D0111E2AC00DA18AEA7E48D01FC
S22400D81311E2AC00DA18AEA7DA8D0111E2AC00DA18AEA7D08D0111E2AC00DA18AEA7C68D25
S22400D8330111E2AC00DA18AEA7BC8D0111E2AC00DA18AEA7B28D0111E2AC00DA18AEA7A8EB
S22400D8538D0111E2AC00DA18AEA79E8D0111E2AC00DA18AEA79A8D0111E2AC00DA18AEA71C
S22400D873948D0111E2AC00DA18AEA78E8D0111E2AC00DA18AEA7838D0111E2AC00DA18AE36
S22400D893A7768D0111E2AC00DA18AEA7658D0111E2AC00DA18AEA7588D0111E2AC00DA188F
S22400D8B3AEA74B8D0111E2AC00DA18AEA73A8D0111E2AC00DA18AEA7358D0111E2AC00DA52
S22400D8D318AEA72D8D0111E2AC00DA18AEA7238D0111E2AC00DA18AEA7198D0111E2AC0045
S22400D8F3DA18AEA70D8D0111E2AC00DA18AEA7088D0111E2AC00DA18AEA7038D0111E2AC9C
S22400D91300DA18AEA6FE8D0111E2AC00DA18AEA6F88D0111E2AC00DA18AEA6F18D0111E25B
S22400D933AC00DA18AEA6EA8D0111E2AC00DA18AEA6DD8D0111E2AC00DA18AEA6D78D0111BA
S22400D953E2AC00DA18AEA6CF8D0111E2AC00DA18AEA6C68D0111E2AC00DA18AEA6C08D0112
S22400D97311E2AC00DA18AEA6B58D0111E2AC00DA18AEA6A78D0111E2AC00DA18AEA6938D48
S22400D9930111E2AC00DA18AEA6838D0111E22075AEA66D8D0111E2206CAEA6FE8D0111E24F
S22400D9B32063AEA7088D0111E2205AAEA6558D0111E22051AEA6478D0111E22048AEA631D0
S22400D9D38D0111E2203FAEA6278D0111E22036AEA61E8D0111E2202DAEA6138D0111E220B5
S22400D9F324AEA6078D0111E2201BAEA6048D0111E22012AEA5F48D0111E22009AEA5C98D2F
S22400DA130111E20F010D0127167B02A5802709AEA5BA8D0111E22007AEA5AD8D0111E28512
S22400DA338789E64B8D00D6301E01E64B5F97724D81AF271B1E01A611E7481E01E64BE749FE
S22400DA531E01E64988AEA5858D0111E28420191E01A612E7481E01A601E7491E01E64988F0
S22400DA73AEA55D8D0111E2841E018D00DCF14B041E028D00E9D284858789A621E748E64B69
S22400DA935F97724D818F27061E016F4920061E01A602E7491E01E64B4D2729A010272E4A4C
S22400DAB327411E01A601E7491E01E64B88AEA4EF8D0111E2841E01E64988AEA4C78D011144
S22400DAD3E2842033AEA5568D0111E2202AAEA5398D0111E24B00AE0010A661958D00C13EC3
S22400DAF3842014AEA51B8D0111E24B10AE0010A661958D00C13E841E018D00DCF185878994
S22400DB13A6608D00C1AA1E01E74AA6618D00C1AA1E01E74B1E01E64AA0022751A00E26040E
S22400DB33AC00DBBC4A2604AC00DBC64A2604AC00DBE2A00E2604AC00DC1C4A2604AC00DC74
S22400DB53241E01E64A88AEA3348D0111E2841E01A602E7481E01A601E7491E018D00DCF1C3
S22400DB734B041E028D00E9D284AC00DC6CAEA4BB8D0111E21E01E64B4D27144A271C1E014C
S22400DB93E64B88AEA45A8D0111E284AC00DC6CAEA4B08D0111E2AC00DC6CAEA48A8D01111D
S22400DBB3E2AC00DC6CAC00DC6C1E018D00DA34AC00DC6CAEA44D8D0111E21E01E64B8D00D8
S22400DBD3D6304B041E028D00E9D284AC00DC6C1E01E64B4D270F4A27154A271BAEA3ED8D48
S22400DBF30111E22019AEA4B08D0111E22010AEA4278D0111E22007AEA4128D0111E24B04D8
S22400DC131E028D00E9D28420501E018D00DA8C2048AEA3E08D0111E21E01E64B4D27184A3E
S22400DC33271E4A27244A272A1E01E64B88AEA3698D0111E2842022AEA4B08D0111E22019C2
S22400DC53AEA3BA8D0111E22010AEA3958D0111E22007AEA4128D0111E2858752035F1F029C
S22400DC731E021C00011F02AE000A8D00C063A61C8D00C1AAA402A10226089C1E02A3000A2C
S22400DC932FDEA6058D00C1AA6B011E02A3000A27067B01A5022705AEFFFF20015F5B0387F6
S22400DCB3895206A30051260E1E0CA3008026001E0CA3000126007B0D977B08958D00C1EB6C
S22400DCD38D00DC6E1F051E0589AEA31A8D0111E2851E0526035F2003AEFFFF5B088789E641
S22400DCF34897A654958D00C1EB1E01E64997A655958D00C1EBAE000289AE00518D00DCB363
S22400DD1385858789AEA2EF8D0111E21E01F688AEA2DD8D0111E2841E01E60188AEA2C18D16
S22400DD330111E284AEA2B78D0111E21E01E602A40F4D27124A27184A271E4A2724AEA22668
S22400DD538D0111E22022AEA2848D0111E22019AEA2728D0111E22010AEA25E8D0111E22098
S22400DD7307AEA24A8D0111E21E01E602A4104EA40F5F9789AEA2188D0111E2851E01E602B9
S22400DD93A4604E44A4075F9789AEA2098D0111E2851E01E604881E02E60388AEA1DC8D0171
S22400DDB311E285AEA1CB8D0111E21E01E6055FA4015F028901AEA1AF8D0111E2851E01E636
S22400DDD305A402445F9789AEA1938D0111E2851E01E605A40444445F9789AEA1778D0111B7
S22400DDF3E2851E01E605A4084444445F9789AEA15B8D0111E2851E01E605A4104EA40F5FD5
S22400DE139789AEA13F8D0111E2851E01E605A4204E44A4075F9789AEA1238D0111E285AE86
S22400DE33A1128D0111E21E01E6065FA4015F028901AEA0FA8D0111E2851E01E606A4024459
S22400DE535F9789AEA0E28D0111E2851E01E607A5802755AEA0D38D0111E21E01E6075FA497
S22400DE73015F028901AEA0B98D0111E2851E01E607A402445F9789AEA09F8D0111E2851E0B
S22400DE9301E607A40444445F9789AEA0858D0111E2851E01E607A4084444445F9789AEA0A3
S22400DEB36B8D0111E2852007AEA04E8D0111E2AEA03F8D0111E21E01E6085FA4015F02898C
S22400DED301AEA0258D0111E2851E01E608A402445F9789AEA00B8D0111E2851E01E608A42A
S22400DEF30444445F9789AE9FF18D0111E2851E01E608A4084444445F9789AE9FD78D0111F4
S22400DF13E2851E01E608A4104EA40F5F9789AE9FBD8D0111E2851E01E608A4204E44A40723
S22400DF335F9789AE9FA38D0111E2851E01E608A4404E4444A4035F9789AE9F898D0111E210
S22400DF53851E01E608A480494F495F9789AE9F6F8D0111E2851E01E60997A6054289AE9F69
S22400DF735B8D0111E285AE9F4B8D0111E21E01E60A5FA4015F028901AE9F2C8D0111E28592
S22400DF931E01E60AA402445F9789AE9F0D8D0111E2851E01E60AA40444445F9789AE9EEE99
S22400DFB38D0111E2851E01E60AA4084444445F9789AE9ECF8D0111E2851E01E60AA4104E0B
S22400DFD3A40F5F9789AE9EB08D0111E2851E01E60C881E02E60B88AE9E858D0111E2851ECE
S22400DFF301E60AA504270D1E01E60D88AE9E658D0111E2841E01E60EA40F5F975C89AE9EFE
S22400E0134B8D0111E2851E01E60EA4F04EA40F5F975C89AE9E318D0111E28585878988AEC6
S22400E0339E058D0111E20F017B0197A654958D00C1EBAE004089AE00508D00DCB35B02A328
S22400E0530000264E7B02977B031B0124015C0289A6568D00C1AA85E7387B02977B031B0134
S22400E07324015C02E6385F97897B035F9789AE9DEE8D0111E25B040C017B01A11025A9AE9C
S22400E0939DC78D0111E21E021C00388D00DD165F2003AEFFFF5B0387899E97A654958D00A2
S22400E0B3C1EB7B0297A655958D00C1EBAE008089AE00508D00DCB3858587899E97A6549510
S22400E0D38D00C1EB7B0297A655958D00C1EBAE008089AE00508D00DCB3858587891E088978
S22400E0F31E08891E058D00E1185B04AE000189AE00518D00DCB3854B00AE00804F958D008F
S22400E113C23584858789899C1E0AA300032F0B9C1E0872FB0AA300112F09AE9DA08D0111FB
S22400E133E2203C7B09AB4097A654958D00C1EB4B00AE00804F958D00C23584AE00021F0186
S22400E15320161E0372FB01E64C97A659958D00C1EB1E011C00011F019C1E01130A2FE35BAB
S22400E1730487896F4CA611E74DA6C1E74EA605E74FA601E750A605E7516F52A607E7536F78
S22400E19354A607E7556F56A607E7576F58A607E7596F5AA607E75BE64C97A65E958D00C15E
S22400E1B3EB1E01E64D97A65F958D00C1EB725F040735100406AE0010895F891E058D00E0B6
S22400E1D3EF5B04C6010997725C01099F88AE9D7A8D0111E284AE0002A620958D00E0AB7214
S22400E1F35C0108AE0004A620958D00E0AB8587896F4CA610E74DA6B8E74EA60FE74FA6011E
S22400E213E750A605E7516F52A607E7536F54A607E7556F56A607E7576F58A607E7596F5A4B
S22400E233A607E75BE64C97A65E958D00C1EB1E01E64D97A65F958D00C1EB725F040735105F
S22400E2530406AE0010895F891E058D00E0EF5B04C6010997725C01099F88AE9D7A8D0111C5
S22400E273E284AE0002A620958D00E0AB725C0108AE0004A620958D00E0AB8587896F4CA60B
S22400E29310E74DA6B7E74EA60FE74FA602E750A605E7516F52A607E7536F54A607E7556F20
S22400E2B356A607E7576F58A607E7596F5AA607E75BE64C97A65E958D00C1EB1E01E64D9715
S22400E2D3A65F958D00C1EB725F040735100406AE0010895F891E058D00E0EF5B04C601094B
S22400E2F397725C01099F88AE9D7A8D0111E284AE0002A620958D00E0AB725C0108AE0004FA
S22400E313A620958D00E0AB8587896F4CA610E74DA6B6E74EA60FE74FA603E750A605E751F9
S22400E3336F52A607E7536F54A607E7556F56A607E7576F58A607E7596F5AA607E75BE64C23
S22400E35397A65E958D00C1EB1E01E64D97A65F958D00C1EB725F040735100406AE0010890E
S22400E3735F891E058D00E0EF5B04C6010997725C01099F88AE9D7A8D0111E284AE0002A639
S22400E39320958D00E0AB725C01088587896F4CA602E74DA6FEE74E6F4FE64C97A65E958D0F
S22400E3B300C1EB1E01E64D97A65F958D00C1EB725F040735040406AE0004895F891E058DEB
S22400E3D300E0EF5B04C6010997725C01099F88AE9D7A8D0111E284AE0002A620958D00E04F
S22400E3F3AB725C0108AE0004A620958D00E0AB8587896F4CA603E74DA6FDE74E6F4FE64C69
S22400E41397A65E958D00C1EB1E01E64D97A65F958D00C1EB725F040735040406AE00048965
S22400E4335F891E058D00E0EF5B04C6010997725C01099F88AE9D7A8D0111E284AE0002A678
S22400E45320958D00E0AB725C010885878952030F017B09A1022606A6806B0320097B0997DB
S22400E473A680429F6B037B03887B0A88AE9D5E8D0111E2850F027B04977B051B0324015C07
S22400E493028901AE00017B05958D00C08B857B04977B051B0324015C027B01FB6B010C038E
S22400E4B30C027B02A17F25CE00017B015B0587AE9D488D0111E24F8D011100AE00018D0004
S22400E4D3C5CF4B01AE0003A6B0958D00C13E845F8D00C5CF87AE9D318D0111E2A6018D015F
S22400E4F31100AE00018D00C5CF4B03AE0003A6B0958D00C13E845F8D00C5CF878952038DB7
S22400E51300E4C20F027B0288AE9D148D0111E2840D02262D4B001E058D00E45F5B016B0359
S22400E5337B0397A6C4958D00C0F47B0397A6C8958D00C0F47B0388AE9CFC8D0111E28420A4
S22400E5535F4B011E058D00E45F5B016B017B0188AE9CE48D0111E2844B011E058D00E5C65F
S22400E5735B016B037B0388AE9CD08D0111E2848D00E76D0D0327297B01887B045F9772FB6D
S22400E59305E601887B06977B071B0524015C02F6977B05958D00E6C385AE9CBE8D0111E2CC
S22400E5B30C027B02A1022404AC00E5188D00E4E85B05878952077B0DA1022606A6806B0634
S22400E5D320097B0D97A680429F6B067B08977B091B0624015C02F6A10226117B08977B09B3
S22400E5F31B0624015C02E601A10327054FAC00E69F7B08977B091B0624015C02E6026B0390
S22400E6137B06AB046B07AC00E6A87B08977B091B0724015C02F64E44A4076B047B08977B8C
S22400E633091B0724015C02F6A41F6B050C077B04A103265B7B08977B091B0724015C02F6FB
S22400E653A103264B7B08977B091B0724015C02E601A10C263A7B08977B091B0724015C0213
S22400E6736D02262B7B07AB036B067B08977B091B0724015C02E603C703E57B08977B091B8D
S22400E6930724015C02E604C703E67B065B09877B071B056B079C7B075F971F017B065F1B8F
S22400E6B30324015C0213012D04AC00E61D4F20DC895206C603DC6B03C603DD6B04C603DECD
S22400E6D36B05C603DF6B067B0D5F1B0824015C1B0C24015C100324015A100424015A0290AF
S22400E6F3AE01008D011A1351016B01027B0D5F1B0824015C1B0C24015C100524015A1006FB
S22400E71324015A0290AE01008D011A1351016B02027B0797A6C1958D00C0F47B0397A6C2D2
S22400E733958D00C0F47B0497A6C3958D00C0F47B0197A6C5958D00C0F47B0597A6C6958D9D
S22400E75300C0F47B0697A6C7958D00C0F47B0297A6C9958D00C0F45B0887C603E5A4F04EBF
S22400E773A40FC703E4C603E5A40FC703E3C603E6A4F04EA40FC703E2C603E6A40FC703E115
S22400E793725D03E42618725D03E32612725D03E2260C725D03E12606725F03E0203A725DDE
S22400E7B303E32612725D03E2260C725D03E12606350103E02022725D03E2260C725D03E16A
S22400E7D32606350203E02010725D03E12606350303E02004350403E0725F03D7C603E04DD0
S22400E7F3271B4A272A4A274A4A275B35FF03DC35FF03DD35FF03DE35FF03DF206C35100377
S22400E813DC725F03DD352003DE725F03DF205AC603E497A610429F4CC703DC725F03DDC6AC
S22400E83303E497A610429FAB02C703DE725F03DF20375503E503DC351003DD5503E503DEED
S22400E853352003DF20235503E503DCC603E297A610429F4CC703DD5503E503DEC603E297DE
S22400E873A610429FAB02C703DF3B03E13B03E23B03E33B03E4AE9C9B8D0111E25B04C60383
S22400E893DCA4F04EA40FC703DBC603DCA40FC703DAC603DDA4F04EA40FC703D9C603DDA426
S22400E8B30FC703D83B03D83B03D93B03DA3B03DBAE9C7A8D0111E25B04C603DEA4F04EA460
S22400E8D30FC703DBC603DEA40FC703DAC603DFA4F04EA40FC703D9C603DFA40FC703D83B56
S22400E8F303D83B03D93B03DA3B03DBAE9C598D0111E25B04876F716F72A604E774878852AC
S22400E913038D00C28E1F021E02E6715F97A6058D011B7C160290E672905F9097905CA605F4
S22400E9338D011BA790BF07B307272C1E026C721E02E6725F97A6058D011B7C016B01027BE6
S22400E95302977B031B0124015C027B04E76C4B031E038D00EA19845B048789E6715F97A632
S22400E973058D011B7C160190E672905F9097A6058D011BA790BF07B3072605AEFFFF203C02
S22400E9931E016C711E01A610E7481E01E6715F97A6058D011B7C72FB01E66C1E01E7491EF6
S22400E9B301E64988AE9C418D0111E2841E018D00DCF14B031E028D00E9D2845F5B02878978
S22400E9D37B061E01E7747B064D270E4A27144A271A4A27204A2726202BAE9C308D0111E2A3
S22400E9F32022AE9C1D8D0111E22019AE9C098D0111E22010AE9BF28D0111E22007AE9BDD8F
S22400EA138D0111E28587897B061E01E773858789E673A103261C1E01E674A10426141E0183
